:020000040800F2
:1000000000200020A51E0008590600085B06000815
:1000100000000000000000000000000000000000E0
:100020000000000000000000000000005D06000865
:1000300000000000000000005F06000861060008E4
:10004000F51E000800000000F51E0008F51E00085F
:10005000F51E0008F51E0008F51E0008F51E000834
:1000600000000000F51E000869060008F51E0008E3
:10007000F51E0008F51E0008F51E0008000000002F
:10008000F51E0008F51E000800000000F51E00081F
:10009000F51E0008F51E0008F51E0008F51E0008F4
:1000A000F51E0008F51E0008F51E00088106000870
:1000B000F51E000800000000000000000000000025
:1000C0000023C25C0133002AFBD1581E7047000098
:1000D000002243088B4274D303098B425FD3030A87
:1000E0008B4244D3030B8B4228D3030C8B420DD39A
:1000F000FF22090212BA030C8B4202D31212090228
:1001000065D0030B8B4219D300E0090AC30B8B4265
:1001100001D3CB03C01A5241830B8B4201D38B0313
:10012000C01A5241430B8B4201D34B03C01A5241B8
:10013000030B8B4201D30B03C01A5241C30A8B42FB
:1001400001D3CB02C01A5241830A8B4201D38B02E6
:10015000C01A5241430A8B4201D34B02C01A52418A
:10016000030A8B4201D30B02C01A5241CDD2C309FC
:100170008B4201D3CB01C01A524183098B4201D378
:100180008B01C01A524143098B4201D34B01C01A63
:10019000524103098B4201D30B01C01A5241C308DB
:1001A0008B4201D3CB00C01A524183088B4201D34A
:1001B0008B00C01A524143088B4201D34B00C01A36
:1001C0005241411A00D20146524110467047FFE7A2
:1001D00001B5002000F006F802BDC0460029F7D0A6
:1001E00076E770477047C0460448054B10B5834218
:1001F00003D0044B002B00D0984710BD30000020E6
:10020000300000200000000006480749091A8B1042
:10021000C90FC91810B5491003D0044B002B00D0EA
:10022000984710BD30000020300000200000000082
:1002300010B5074C2378002B09D1FFF7D5FF054BEC
:10024000002B02D0044800E000BF0123237010BD42
:1002500030000020000000007C1F0008054B10B596
:10026000002B03D00449054800E000BFFFF7CCFF96
:1002700010BDC04600000000340000207C1F0008B4
:10028000F0B5CE46474680B58BB01422002105A8B4
:1002900001F031FE324B5A69802109030A435A6149
:1002A0005A690A400192019A5A698021C9030A4396
:1002B0005A615A690A400292029A5A698021890257
:1002C0000A435A615A690A400392039A5A69802183
:1002D000C9020A435A615B690B400493049B802462
:1002E000A401204B994600222100180000F068FC70
:1002F0001D4B984600228021180000F061FCE02789
:10030000BF001A4D00223900280000F059FC059466
:100310000126069600240794089405A9484600F093
:100320008BFB8023059306960794089405A9404605
:1003300000F082FB402305930694079405A928004A
:1003400000F07AFB059706960794089405A9280003
:1003500000F072FB0BB0C0BCB946B046F0BDC04661
:100360000010024000080048001400480004004843
:1003700000B583B0094A516901231943516152699B
:1003800013400193019B002200210A2000F018FA7B
:100390000A2000F019FA03B000BDC0460010024068
:1003A00072B6FEE710B50B480B4B036096239B011A
:1003B000436000238360C36003610C224261836158
:1003C000C3610362436201F055FC002800D110BDF7
:1003D000FFF7E6FF5C0100200038014010B50B4834
:1003E0000B4B0360E1235B02436000238360C36027
:1003F00003610C2242618361C3610362436201F0C5
:1004000039FC002800D110BDFFF7CAFFD40000203E
:100410000044004000B595B03022002108A801F04A
:100420006AFD1022002104A801F065FD10220021C0
:10043000684601F060FD0223089301220B920F32FF
:100440000C921093A0239B03129308A800F0BEFB0C
:10045000002817D107230493053B05930023069337
:100460000793012104A800F029FE00280CD10123E4
:10047000009300230293684600F0D0FE002805D1C7
:1004800015B000BDFFF78CFFFFF78AFFFFF788FF6D
:1004900000B5C1B000F026F9FFF7BCFFFFF7F0FE92
:1004A000FFF766FFFFF77EFFFFF798FF802200212E
:1004B00020A801F020FD80220021684601F01BFDEC
:1004C0000D4B1A68136810210B4313600A487F22F2
:1004D000694601F05DFC0028F8D1684601F092FC05
:1004E0008022002120A801F006FD8022002168461C
:1004F00001F001FDEAE7C0465C01002082B00A4B32
:10050000996901221143996199690A400092009A00
:10051000DA69802149050A43DA61DB690B400193FE
:10052000019B02B07047C0460010024010B58AB06F
:1005300004001422002105A801F0DDFC23683F4AD5
:10054000934204D03E4A934258D00AB010BD3D4B6E
:100550009A698021C9010A439A619A690A40019205
:10056000019A5A69802189020A435A615B690B40EA
:100570000293029BC023DB00059302230693013301
:100580000893023B0993902005A9C00500F054FA96
:100590002D482E4B03600023436083608022C2609D
:1005A000036143618361C36100F046F900281FD1F4
:1005B000254B63675C622648264B0360102343602B
:1005C000002383608022C260036143618361C36151
:1005D00000F032F900280ED11D4B23675C62002227
:1005E00000211B2000F0ECF81B2000F0EDF8ACE738
:1005F000FFF7D6FEDCE7FFF7D3FEEDE7114BD96935
:10060000802292021143D961D96911400391039963
:100610005969114359615B6913400493049B0C238E
:1006200005930A3B069301330893023B09939020FC
:1006300005A9C00500F000FA87E7C0460038014070
:1006400000440040001002409000002030000240B2
:100650004C0000201C000240FEE7FEE77047704798
:1006600010B500F04FF810BD10B5034800F08EF93A
:10067000024800F08BF910BD4C00002090000020D3
:1006800010B5024800F0E6FE10BDC0465C01002037
:100690007047000010B504000F4B1978FA20800055
:1006A000FFF716FD01000D4B1868FFF711FD00F074
:1006B00097F800280DD1032C01D901200AE0013060
:1006C00000222100404200F07BF8054B1C60002016
:1006D00000E0012010BDC046040000200000002002
:1006E0000800002010B5064A136810210B43136060
:1006F0000320FFF7CFFFFFF701FF002010BDC0462A
:1007000000200240034A1168034B1B785B181360FA
:100710007047C046E401002004000020014B186827
:100720007047C046E401002070B5002811DB830843
:10073000134DC0339B005C5903221040C000FC32B3
:1007400016008640B44389010A40824022435A5130
:1007500070BD0F230340083B9B0806339B00094AEA
:10076000944663445C6803221040C000FC321500CC
:100770008540AC4389010A40824022435A60E7E742
:1007800000E100E000ED00E0013880235B049842C6
:100790000FD2094A50600948036A1B021B0AC02194
:1007A00009060B43036200239360073313600020A4
:1007B00070470120FCE7C04610E000E000ED00E0DB
:1007C00010B5FFF7B1FF10BD002805DB1F22024066
:1007D00001239340014A13607047C04600E100E0E6
:1007E00010B5FFF7D1FF10BD70B5066CC56B0124C5
:1007F000B4406C60046863604368102B04D00368E5
:1008000099600368DA6070BD03689A600368D96014
:10081000F9E7000010B504000068054B9C466044F1
:100820001421FFF755FC80002064024BE36310BDE8
:10083000F8FFFDBF0000024070B5041E20D0212546
:100840000223435501680A680E4B1A4043688068CA
:100850000343E06803432069034360690343A069DD
:100860000343E069034313430B602000FFF7D2FF0B
:100870000023A363012262551F32A354002070BDE0
:100880000120FCE70FC0FFFF70B504002020205CB2
:10089000012832D02020012525540130205C012878
:1008A00004D020230022E254022070BD2030013504
:1008B00025540020A063256828680126B0432860DD
:1008C0002000FFF791FFE36A002B0BD0226813682A
:1008D0000E210B4313602268136801210B43136040
:1008E0000020E2E7226813680A210B4313602268A4
:1008F000136806398B431360EDE70220D5E710B586
:100900002123C35C022B06D0042383631C33002203
:10091000C254012010BD026813680E218B4313607E
:1009200001680A6801239A430A60016CC26B1C00CB
:100930008C405460212283541F330022C254002073
:10094000E8E710B52123C35C022B03D004238363A3
:10095000012010BD026813680E218B4313600168EB
:100960000A6801239A430A60016CC26B1C008C4028
:100970005460212283541F330022C254436B002B46
:1009800002D098470020E4E70020E2E770B5C36B8F
:100990001A6804682568016C04238B401A4212D03F
:1009A0006B0710D523689B0603D423680422934366
:1009B0002360016CC26B04238B405360C36A002B1D
:1009C00000D0984770BD02238B401A4218D0AB0765
:1009D00016D523689B0606D423680A229343236016
:1009E0002123093AC254016CC26B02238B4053602D
:1009F00020230022C254836A002BE3D09847E1E70A
:100A000008238B401A42DDD02D07DBD523680E2248
:100A100093432360016CC26B01231C008C40546023
:100A20008363212283541F330022C254036B002BA3
:100A3000C8D09847C6E70000F0B583B0002356E061
:100A400086685F000324BC40A643CC68BC403443A6
:100A50008460446894434E683609012232409A40CB
:100A60002243426053E0DE080836B60037580532AC
:100A70001A4092000F249440A7430C69944022002E
:100A80003A43325056E0032600E00026A6403400E8
:100A90003C4302329200444E9451444A9768EA43E0
:100AA0003E00AE434C68E40201D53E002E433F4C6D
:100AB000A660E7683E0016404C68A40201D53E00DF
:100AC0002E433A4CE66067683E0016404C68A4032B
:100AD00001D53E002E43354C6660266832404C6896
:100AE000E40301D52A003243304C226001330C6804
:100AF0002200DA4056D001229A40250015401442C7
:100B0000F4D04E6803243440013C012C98D94C6841
:100B100003222240032A08D0C4685E000322B240A8
:100B200094438A68B2402243C2604C680322224048
:100B3000022A98D004685E0003221700B740BC4325
:100B40004F683A40B240224302604C68C022920291
:100B50001442CBD0164CA66901221643A661A469A3
:100B600022400192019A9A08941CA4000E4EA759A3
:100B700003241C40A4000F26A640B7439026F60588
:100B8000B04282D00B4EB04208D00B4EB04207D0DC
:100B90000A4EB04200D176E7052677E7012675E7D1
:100BA000022673E703B0F0BD0000014000040140DD
:100BB000001002400004004800080048000C0048F3
:100BC000002A01D0816170478162FCE770B582B074
:100BD000041E00D12EE20368DB0726D5AE4B5A680F
:100BE0000C231340042B18D0AB4B5A680C23134032
:100BF000082B0ED06368012B3CD0002B51D1A64BA3
:100C00001A68A6490A401A601A68A5490A401A607B
:100C100036E0A14B5B68DB03ECD59F4B1B689B0365
:100C200003D56368002B00D107E223689B0772D5C8
:100C3000994B5B680C221A425DD0974B5A680C2383
:100C40001340082B53D0E368002B00D185E0924A73
:100C5000136801210B431360FFF760FD05008E4B05
:100C60001B689B0770D4FFF759FD401B0228F6D97B
:100C70000320E0E1884A116880235B020B43136084
:100C80006368002B25D0FFF749FD0500824B1B68E8
:100C90009B03CAD4FFF742FD401B6428F6D903200A
:100CA000C9E1052B09D07C4B1A687C490A401A60BF
:100CB0001A687B490A401A60E2E7774B196880227C
:100CC000D2020A431A601968802252020A431A604B
:100CD000D6E7FFF723FD05006F4B1B689B03A4D5E8
:100CE000FFF71CFD401B6428F6D90320A3E16A4BE3
:100CF0005B68DB03A7D4684B1B689B0703D5E368DD
:100D0000012B00D09BE164490B68F82293432269D0
:100D1000D20013430B6023681B0744D5E369002B03
:100D20002ED05D4A536A01210B435362FFF7F6FC54
:100D30000500594B5B6A9B0735D4FFF7EFFC401B5E
:100D40000228F6D9032076E153490B68F822934331
:100D50002269D20013430B60DDE74F4A136801217B
:100D60008B431360FFF7DAFC05004B4B1B689B07B6
:100D7000D1D5FFF7D3FC401B0228F6D903205AE156
:100D8000454A536A01218B435362FFF7C7FC0500B4
:100D9000414B5B6A9B0706D5FFF7C0FC401B02284E
:100DA000F6D9032047E123685B0700D480E03A4B83
:100DB000DB69DB001DD4384BDA69802149050A4321
:100DC000DA61DB690B400193019B0125354B1B6800
:100DD000DB0510D5A368012B21D0002B36D12E4B7B
:100DE0001A6A01218A431A621A6A03318A431A6213
:100DF0001AE00025EAE72B4A116880235B000B43C9
:100E00001360FFF78BFC0600264B1B68DB05E1D463
:100E1000FFF784FC801B6428F6D903200BE11E4AEF
:100E2000136A01210B431362A368002B24D0FFF740
:100E300075FC0600184B1B6A9B0737D4FFF76EFC46
:100E4000801B194B9842F5D90320F4E0052B09D0FB
:100E5000114B1A6A01218A431A621A6A03318A43C2
:100E60001A62E1E70C4B1A6A04210A431A621A6AF1
:100E700003390A431A62D7E7FFF750FC0600064B16
:100E80001B6A9B0712D5FFF749FC801B064B984253
:100E9000F5D90320CFE0C04600100240FFFFFEFF5F
:100EA000FFFFFBFF0070004088130000012D33D0CE
:100EB0002368DB0610D56369012B33D0053351D18C
:100EC000654A536B04218B435363536BF4318B435B
:100ED000A169C9000B435363236A002B00D1B0E022
:100EE0005D4A51680C220A40082A00D18AE0022B90
:100EF0004FD0594A136859490B401360FFF70EFC55
:100F00000400554B1B689B017AD5FFF707FC001BBB
:100F10000228F6D903208EE04F4AD36950490B408E
:100F2000D361C5E74C4B5A6B04210A435A635A6B91
:100F300003390A435A63FFF7F1FB0500464B5B6B2D
:100F40009B0706D4FFF7EAFB401B0228F6D90320D3
:100F500071E041494B6BF8229343A269D2001343DD
:100F60004B63B9E73C4B5A6B04210A435A635A6BF3
:100F700003398A435A63FFF7D1FB0500364B5B6B9D
:100F80009B07A9D5FFF7CAFB401B0228F6D903200F
:100F900051E0314A136831490B401360FFF7BEFB43
:100FA00005002D4B1B689B0106D5FFF7B7FB401BC7
:100FB0000228F6D903203EE0274BDA6A0F218A4344
:100FC000E16A0A43DA625A6826490A40A16A606AFD
:100FD00001430A435A601968802252040A431A6086
:100FE000FFF79CFB04001C4B1B689B0106D4FFF71A
:100FF00095FB001B0228F6D903201CE000201AE014
:10100000002018E0012B1ED0134B5A68D86A8023A9
:101010005B021340616A8B4217D10F230340E16AE0
:101020008B4214D1F0239B031A40A36A9A4210D139
:10103000002000E0012002B070BD0120FBE701208C
:10104000F9E70020F7E70120F5E70120F3E70120A9
:10105000F1E70120EFE7C04600100240FFFFFFFE6E
:10106000FFFFFFEFFFFFC2FF10B5104B5A680C23C4
:101070001340082B01D00E4810BD910C07331940C6
:101080000C48445C0949C96A0B400B49C95CD2034E
:1010900004D50748FFF71CF86043EDE76201121B17
:1010A00093019B1ADB001B191802E5E700100240B0
:1010B00000127A00BC1F0008AC1F000870B50400C5
:1010C0000D00002800D17EE0434B1A680123134035
:1010D0008B420AD240490B68012293432B430B6099
:1010E0000B681A40AA4200D06FE023689A070ED519
:1010F0005B0705D5394A5168E023DB000B43536099
:10110000364A5368F0218B43A1680B435360236830
:10111000DB072DD56368012B1ED0022B22D02F4A6E
:101120001268920753D52D494A680320824313431E
:101130004B60FFF7F3FA0600284B5B680C221A405D
:1011400063689B009A4213D0FFF7E8FA801B244B98
:101150009842F1D9032035E0204A12689203E2D484
:1011600001202FE01D4A12689201DCD4012029E001
:10117000194B1A6801231340AB4209D916490B6871
:10118000012293432B430B600B681A40AA4220D1E3
:1011900023685B0706D5114A536812490B40E16882
:1011A0000B435360FFF760FF0C4B5A6812090F2383
:1011B00013400D4AD35CD8400C4B18600320FFF756
:1011C00069FA002070BD0120FCE70120FAE7012048
:1011D000F8E70120F6E7C046002002400010024078
:1011E00088130000FFF8FFFF9C1F0008000000208C
:1011F000014B18687047C0460000002010B5FFF78B
:10120000F7FF044B5A68120A07231340024AD35CC3
:10121000D84010BD00100240941F000870B582B085
:1012200004000368DB0339D53E4BDB69DB004BD49C
:101230003C4BDA69802149050A43DA61DB690B40DE
:101240000193019B0125384B1B68DB053ED5354BCF
:101250001A6AC0239B00110019401A4215D0636816
:10126000C022920013408B420FD02E4B1A6A2F4996
:1012700011401E6A8020400230431862186A2C4ECA
:10128000304018621962D20734D4264A136A2749BB
:101290000B4061680B431362012D3AD02368DB07D2
:1012A00006D5204A136B03218B43A1680B431363BC
:1012B00023689B0632D51B4A136B10218B43E168D0
:1012C0000B43136300202AE00025BCE7164A11688F
:1012D00080235B000B431360FFF720FA0600124BDC
:1012E0001B68DB05B3D4FFF719FA801B6428F6D915
:1012F000032014E0FFF712FA06000A4B1B6A9B0753
:10130000C3D4FFF70BFA801B0A4B9842F5D9032090
:1013100005E0D36908490B40D361BFE7002002B064
:1013200070BDC0460010024000700040FFFCFFFF8F
:10133000FFFFFEFF88130000FFFFFFEF10B5EFF384
:101340001081012383F3108802681368C024A3432B
:10135000136081F310882023C36710BD10B5EFF32D
:10136000108C012282F3108801680B68124C234014
:101370000B608CF31088EFF3108C82F310880168F7
:101380008B6893438B608CF31088036E012B06D01F
:1013900080232022C25000230366836610BDEFF332
:1013A000108183F31088026813683234FF34A3433A
:1013B000136081F31088EBE7DFFEFFFF704710B585
:1013C000EFF31081012383F310880268136840242F
:1013D000A343136081F310882023C3670023C366EF
:1013E000FFF7ECFF10BD70477047704770B5446A57
:1013F000E16F8023E55822689268134201D02129C9
:101400000ED023689B685B0601D5222D0FD0842265
:10141000A35810210B43A3502000FFF7E6FF70BD37
:101420002E3B0022E2522000FFF788FFE9E75A2313
:101430000022E2522000FFF791FFE8E710B5406A72
:1014400000235A228352083A8352FFF7CEFF10BD81
:101450007047000070B504000268D3691168906895
:10146000A54D2B4209D198060FD588060DD5A36E40
:10147000002B18D02000984715E001252E000640CB
:10148000054211D19D4801420ED1206E012800D1A4
:101490008DE01A0602D50A0600D522E15B0602D5C8
:1014A000490600D524E170BDD80707D5C80505D584
:1014B00001251562842022582A4322509A0709D513
:1014C000002E07D0226802201062823022580425A4
:1014D0002A4322505A0709D5002E07D0226804203B
:1014E00010628030225802252A4322501A070AD55A
:1014F0008A0601D4002E06D02268082515628420B1
:1015000022582A4322501A050AD54A0108D52268D2
:101510008020000110628420225820252A43225076
:101520008422A258002ABED09B0606D5890604D57F
:10153000A36E002B01D0200098478423E258236833
:101540009B685B0602D42823134229D02000FFF7B2
:1015500005FF23689B685B061ED5EFF3108101230E
:1015600083F310882268936840208343936081F35B
:101570001088636F002B0BD0614A5A63606FFFF7CE
:10158000E0F9002800D18EE7606F436B98478AE747
:101590002000FFF72AFF86E72000FFF726FF82E7FB
:1015A0002000FFF722FF84230022E2507BE7D806C9
:1015B00000D46EE7C80600D46BE7102313622368DB
:1015C0009B685B0652D5626F13685B689BB2002B09
:1015D00000D168E75821615A994200D863E75A213F
:1015E00063529369202B0BD1022363665633E15A71
:1015F0000233E35AC91A89B22000FFF729FF52E7E4
:10160000EFF31080012383F3108821680A683D4DB1
:101610002A400A6080F31088EFF3108083F310886B
:1016200021688A689A438A6080F31088EFF31080FB
:1016300083F3108821688A684235FF35AA438A609F
:1016400080F3108880222021A15000222266EFF32F
:10165000108183F31088226813681020834313607D
:1016600081F31088606FFFF74AF9BDE75823E35A0A
:101670005A22A15A591A89B2A35A9BB2002B00D1FF
:1016800011E7002900D10EE7EFF31085012383F362
:101690001088206802681C4E3240026085F3108872
:1016A000EFF3108583F31088206882689A43826084
:1016B00085F3108880222020A05000222266A26696
:1016C000EFF3108083F31088226813681025AB4372
:1016D000136080F31088022363662000FFF7B8FED2
:1016E000E1E6E36E002B00D1DDE620009847DAE664
:1016F0002000FFF764FED6E60F080000200100047A
:101700003D140008FFFEFFFFDFFEFFFF10B5406A3B
:1017100001234366036E012B02D0FFF765FE10BD67
:101720005733C15A4908FFF793FEF8E770B5030035
:10173000406A9B69202B29D05A230022C252EFF322
:101740001084593B83F3108801680A681C4D2A40B5
:101750000A6084F31088EFF3108483F31088016823
:101760008A689A438A6084F31088EFF3108183F3C8
:101770001088026893684024A343936081F3108823
:1017800080232022C250036E012B07D00023436622
:10179000036E012B0ED0FFF726FE70BDEFF3108114
:1017A00083F3108802681368303CA343136081F30D
:1017B0001088EBE75733C15AFFF74AFEEDE7C04602
:1017C000FFFEFFFF10B504008368026913434269FE
:1017D0001343C269134301680A684E480240134329
:1017E0000B60226853684C490B40E1680B4353601F
:1017F000A369226A1A4321688B684848034013434F
:101800008B602368464A934211D0464A93421FD0C8
:101810001023E06980221202904223D0042B6AD068
:101820004ED8002B53D0022B48D13F4853E03F4BBA
:101830001A6B03231340022B0CD005D8002B0BD0BE
:10184000012B0BD10333E4E7032B09D1013BE0E784
:101850000023DEE70823DCE70023DAE71023D8E7DC
:101860001023D6E7042B26D007D8002B09D0022B53
:1018700001D12D4809E0012047E0082B05D00120C7
:1018800043E0FFF7BBFC002838D0400061684B08FC
:10189000C018FEF71DFC0200103A254B9A422FD8C3
:1018A00082B20F239A434008083B03401343226847
:1018B000D360002029E0FFF7D7FBE4E7012024E014
:1018C000082B02D18020000205E001201DE0FFF777
:1018D00095FC002816D061684B081818FEF7F8FB35
:1018E0000200103A124B9A420ED823680004000CF2
:1018F000D860002009E0FFF7B7FBEAE7002004E02A
:10190000012002E0002000E001200023A366E3663E
:1019100010BDC046F369FFFFFFCFFFFFFFF4FFFFDD
:10192000003801400044004000127A0000100240DC
:10193000EFFF0000436A1B0706D5026853682C4975
:101940000B40416B0B435360436ADB0706D50268CB
:10195000536828490B40816A0B435360436A9B07D5
:1019600006D50268536824490B40C16A0B43536093
:10197000436A5B0706D50268536820490B40016B38
:101980000B435360436ADB0606D5026893681C4923
:101990000B40816B0B439360436A9B0606D502683C
:1019A000936818490B40C16B0B439360436A5B0615
:1019B0000BD50268536814490B40016C0B4353600C
:1019C000026C80235B039A420AD0436A1B0606D549
:1019D000026853680D490B40816C0B43536070479C
:1019E000026853680A490B40416C0B435360ECE7B3
:1019F000FF7FFFFFFFFFFDFFFFFFFEFFFFFFFBFF7E
:101A0000FFEFFFFFFFDFFFFFFFFFEFFFFFFFF7FF2E
:101A1000FFFF9FFFF8B5CE46474680B506000D0094
:101A200017009946089B98463368DC692C40641B74
:101A300063425C41BC4233D143460133F4D0FEF7EC
:101A40006DFE4B46C01A40452FD84346002B2ED082
:101A5000326813685B07E7D5802DE5D0402DE3D0D1
:101A6000D3691B0710D4D3691B05DDD580231B0167
:101A700013623000FFF772FC84232022F2500C3BEB
:101A80000022F25403200CE0082414623000FFF717
:101A900065FC8423F4500C3B0022F254012000E04A
:101AA0000020C0BCB946B046F8BD0320F9E70320CA
:101AB000F7E7F0B5C64600B582B004000D009046C9
:101AC0001E00C36F202B62D1002965D0002A65D08B
:101AD000826880235B019A4204D10369002B01D103
:101AE000CB075DD484230022E250633BE367FEF71B
:101AF00015FE070050234246E2520233E252A2682A
:101B000080235B019A4202D0002398461AE02369A1
:101B1000002B02D00023984614E0A846002511E0CF
:101B20002023E367032033E043461B882268DB055C
:101B3000DB0D138502239C46E0445223E25A013A0E
:101B400092B2E2525223E35A9BB2002B0FD000967E
:101B50003B00002280212000FFF75CFF0028DFD13E
:101B6000002DE1D02A7823681A850135E5E7009633
:101B70003B00002240212000FFF74CFF002802D14B
:101B80002023E36704E02023E367032000E0022032
:101B900002B080BCB846F0BD0120F9E70120F7E7AC
:101BA0000120F5E730B583B0040084230022C25041
:101BB000FEF7B4FD050023681B681B070FD42368DC
:101BC0001B685B0729D42023E3678022A3500023EE
:101BD00023666366083AA354002003B030BD802119
:101BE000224B00930300002289032000FFF712FF1D
:101BF0000028E4D0EFF31081012383F310882268DA
:101C0000136880208343136081F310882023E367E7
:101C100058330022E2547D38DFE78021134B0093D4
:101C20002B000022C9032000FFF7F4FE0028CAD0D1
:101C3000EFF31080012282F3108821680B680C4DAD
:101C40002B400B6080F31088EFF3108082F3108834
:101C500021688B6893438B6080F3108880231F3248
:101C6000E250083B0022E2540320B6E7FFFFFF01E9
:101C7000DFFEFFFF10B5041E2ED0C36F002B21D056
:101C80002423E3672268136801218B431360636A8E
:101C9000002B1DD12000FFF795FD012811D02268EF
:101CA00053680E490B4053602268936808218B43A8
:101CB00093602268136807390B4313602000FFF715
:101CC00071FF10BD78330022C254FEF72FFCD7E716
:101CD0002000FFF72FFEDDE70120F2E7FFF7FFFF0F
:101CE00010B5040013004165582283522C320021A4
:101CF0008150043A22318150426F002A12D021498A
:101D00009162426F2049D162426F20491163426F54
:101D10000021516301682431426D406FFEF7B4FD2C
:101D2000002826D12369002B0BD0EFF3108101236B
:101D300083F3108822681068FF330343136081F334
:101D40001088EFF31080012383F3108821688A68DC
:101D50001A438A6080F31088EFF3108183F31088B0
:101D60002268936840200343936081F31088002029
:101D700010BD84231022E250043B1032E2500120B7
:101D8000F6E7C0462D1700080D170008ED130008F0
:101D900010B504008023C358202B2AD100292AD053
:101DA000002A2AD0806880235B01984204D12369ED
:101DB000002B01D1CB0722D40123236600236366C5
:101DC0002000FFF78DFF002814D1236E012B01D0D6
:101DD00001200FE0236810211962EFF3108C01231A
:101DE00083F31088226813680B4313608CF3108808
:101DF00000E0022010BD0120FCE70120FAE70120ED
:101E0000F8E7000070B5050000241AE02149280019
:101E100000F079F8002813D01F4B620012199200CD
:101E20009B18198958680022FEF7CAFE2800FEF7A1
:101E300047F9012382B219485B422900FFF739FEB6
:101E40000134022C24D8144A63001B199B009958B2
:101E5000280000F058F80028F2D01149280000F0BE
:101E600052F80028D2D00C4B6200121992009B1835
:101E7000198958680122FEF7A3FE2800FEF720F911
:101E8000012382B205485B422900FFF712FED7E723
:101E900070BDC046D41F00080C000020D4000020F4
:101EA000CC1F00080D488546FEF7F2FB0C480D4993
:101EB0000D4A002302E0D458C4500433C4188C42A5
:101EC000F9D30A4A0A4C002301E013600432A2420B
:101ED000FBD300F02FF8FEF7DBFAFEE7002000202E
:101EE0000000002030000020F41F00083000002017
:101EF000E8010020FEE703008218934200D17047FA
:101F000019700133F9E70A7830B5002A0CD130BDD9
:101F10009A4208D10123CC5C002CF8D0C55CA542C4
:101F200001D10133F7E701300378002BF0D118001D
:101F3000EDE7000070B500260C4C0D4D641BA4109D
:101F4000A64209D1002600F019F80A4C0A4D641B7C
:101F5000A410A64205D170BDB300EB5898470136D6
:101F6000EEE7B300EB5898470136F2E7EC1F0008A4
:101F7000EC1F0008F01F0008EC1F0008F8B5C04671
:101F8000F8BC08BC9E467047F8B5C046F8BC08BC13
:041F90009E467047B2
:101F94000000000001020304000000000000000033
:101FA40001020304060708090102030405060708E1
:101FB400090A0B0C0D0E0F1002030405060708098D
:101FC4000A0B0C0D0E0F10104F4E00000000000005
:101FD4004F4646004C4947485400000046414E00D5
:081FE4004355525441494E00DF
:041FEC005D0200088A
:041FF00031020008B2
:101FF40000127A000100000004000000D81F00084D
:102004000004004800010000E01F0008000400482C
:1020140000020000E41F00080004004880000000E3
:0400000508001EA52C
:00000001FF
